{
  "contractName": "MedicalHistory",
  "abi": [
    {
      "constant": false,
      "inputs": [
        {
          "name": "mh",
          "type": "string"
        },
        {
          "name": "tp",
          "type": "string"
        },
        {
          "name": "synchronizer",
          "type": "address"
        }
      ],
      "name": "updateMedicalHistory",
      "outputs": [],
      "payable": false,
      "stateMutability": "nonpayable",
      "type": "function"
    },
    {
      "constant": true,
      "inputs": [
        {
          "name": "a",
          "type": "string"
        },
        {
          "name": "b",
          "type": "string"
        }
      ],
      "name": "compareStrings",
      "outputs": [
        {
          "name": "",
          "type": "bool"
        }
      ],
      "payable": false,
      "stateMutability": "view",
      "type": "function"
    },
    {
      "constant": true,
      "inputs": [],
      "name": "medicalHistory",
      "outputs": [
        {
          "name": "",
          "type": "string"
        }
      ],
      "payable": false,
      "stateMutability": "view",
      "type": "function"
    },
    {
      "inputs": [
        {
          "name": "mh",
          "type": "string"
        }
      ],
      "payable": false,
      "stateMutability": "nonpayable",
      "type": "constructor"
    },
    {
      "anonymous": false,
      "inputs": [
        {
          "indexed": false,
          "name": "medicalHistory",
          "type": "string"
        },
        {
          "indexed": false,
          "name": "synchronizer",
          "type": "address"
        }
      ],
      "name": "infoEvent",
      "type": "event"
    },
    {
      "anonymous": false,
      "inputs": [
        {
          "indexed": false,
          "name": "medicalHistory",
          "type": "string"
        },
        {
          "indexed": false,
          "name": "synchronizer",
          "type": "address"
        }
      ],
      "name": "hemoglobinEvent",
      "type": "event"
    },
    {
      "anonymous": false,
      "inputs": [
        {
          "indexed": false,
          "name": "medicalHistory",
          "type": "string"
        },
        {
          "indexed": false,
          "name": "synchronizer",
          "type": "address"
        }
      ],
      "name": "appointmentEvent",
      "type": "event"
    }
  ],
  "bytecode": "0x608060405234801561001057600080fd5b50604051610a39380380610a398339810180604052602081101561003357600080fd5b81019080805164010000000081111561004b57600080fd5b8281019050602081018481111561006157600080fd5b815185600182028301116401000000008211171561007e57600080fd5b5050929190505050806000908051906020019061009c9291906100a3565b5050610148565b828054600181600116156101000203166002900490600052602060002090601f016020900481019282601f106100e457805160ff1916838001178555610112565b82800160010185558215610112579182015b828111156101115782518255916020019190600101906100f6565b5b50905061011f9190610123565b5090565b61014591905b80821115610141576000816000905550600101610129565b5090565b90565b6108e2806101576000396000f3fe608060405260043610610057576000357c0100000000000000000000000000000000000000000000000000000000900463ffffffff168063215fd7e71461005c578063bed34bba146101bb578063e0a4c8d614610332575b600080fd5b34801561006857600080fd5b506101b96004803603604081101561007f57600080fd5b810190808035906020019064010000000081111561009c57600080fd5b8201836020820111156100ae57600080fd5b803590602001918460018302840111640100000000831117156100d057600080fd5b91908080601f016020809104026020016040519081016040528093929190818152602001838380828437600081840152601f19601f8201169050808301925050505050505091929192908035906020019064010000000081111561013357600080fd5b82018360208201111561014557600080fd5b8035906020019184600183028401116401000000008311171561016757600080fd5b91908080601f016020809104026020016040519081016040528093929190818152602001838380828437600081840152601f19601f8201169050808301925050505050505091929192905050506103c2565b005b3480156101c757600080fd5b50610318600480360360408110156101de57600080fd5b81019080803590602001906401000000008111156101fb57600080fd5b82018360208201111561020d57600080fd5b8035906020019184600183028401116401000000008311171561022f57600080fd5b91908080601f016020809104026020016040519081016040528093929190818152602001838380828437600081840152601f19601f8201169050808301925050505050505091929192908035906020019064010000000081111561029257600080fd5b8201836020820111156102a457600080fd5b803590602001918460018302840111640100000000831117156102c657600080fd5b91908080601f016020809104026020016040519081016040528093929190818152602001838380828437600081840152601f19601f820116905080830192505050505050509192919290505050610680565b604051808215151515815260200191505060405180910390f35b34801561033e57600080fd5b50610347610773565b6040518080602001828103825283818151815260200191508051906020019080838360005b8381101561038757808201518184015260208101905061036c565b50505050905090810190601f1680156103b45780820380516001836020036101000a031916815260200191505b509250505060405180910390f35b610401816040805190810160405280600981526020017f696e666f4576656e740000000000000000000000000000000000000000000000815250610680565b156104a3577f571cd22fdb7ee756a91b2a34cbc2b29ea884e4f6d393ae0e33c2e04fde4a4a3f826040518080602001828103825283818151815260200191508051906020019080838360005b8381101561046857808201518184015260208101905061044d565b50505050905090810190601f1680156104955780820380516001836020036101000a031916815260200191505b509250505060405180910390a15b6104e2816040805190810160405280600f81526020017f68656d6f676c6f62696e4576656e740000000000000000000000000000000000815250610680565b15610584577f1da8c9d647b4530e17c9b1e16bbfb11e6e3d796d13ffcc847de1672292eb7de9826040518080602001828103825283818151815260200191508051906020019080838360005b8381101561054957808201518184015260208101905061052e565b50505050905090810190601f1680156105765780820380516001836020036101000a031916815260200191505b509250505060405180910390a15b6105c3816040805190810160405280601081526020017f6170706f696e746d656e744576656e7400000000000000000000000000000000815250610680565b15610665577f1b2f48f8f59d919b6c9da8548b4541e99d1887b87e05b9e32e2d21de567ba0c6826040518080602001828103825283818151815260200191508051906020019080838360005b8381101561062a57808201518184015260208101905061060f565b50505050905090810190601f1680156106575780820380516001836020036101000a031916815260200191505b509250505060405180910390a15b816000908051906020019061067b929190610811565b505050565b6000816040516020018082805190602001908083835b6020831015156106bb5780518252602082019150602081019050602083039250610696565b6001836020036101000a03801982511681845116808217855250505050505090500191505060405160208183030381529060405280519060200120836040516020018082805190602001908083835b60208310151561072f578051825260208201915060208101905060208303925061070a565b6001836020036101000a0380198251168184511680821785525050505050509050019150506040516020818303038152906040528051906020012014905092915050565b60008054600181600116156101000203166002900480601f0160208091040260200160405190810160405280929190818152602001828054600181600116156101000203166002900480156108095780601f106107de57610100808354040283529160200191610809565b820191906000526020600020905b8154815290600101906020018083116107ec57829003601f168201915b505050505081565b828054600181600116156101000203166002900490600052602060002090601f016020900481019282601f1061085257805160ff1916838001178555610880565b82800160010185558215610880579182015b8281111561087f578251825591602001919060010190610864565b5b50905061088d9190610891565b5090565b6108b391905b808211156108af576000816000905550600101610897565b5090565b9056fea165627a7a72305820128087e41d18e2996e359b46458534bd4aa0de49e3c55aaff79b0e4049099d860029",
  "source": "pragma solidity ^0.5.0;\r\n\r\ncontract MedicalHistory {\r\n\r\n\r\n    string public medicalHistory;\r\n\r\n    event infoEvent (\r\n       string medicalHistory\r\n    );\r\n\r\n    event hemoglobinEvent (\r\n        string medicalHistory\r\n    );\r\n\r\n    event appointmentEvent (\r\n        string medicalHistory\r\n    );\r\n\r\n    constructor(string memory mh) public{\r\n        medicalHistory = mh;\r\n    }\r\n\r\n    function compareStrings (string memory a, string memory b) public view \r\n        returns (bool) {\r\n            return (keccak256(abi.encodePacked((a))) == keccak256(abi.encodePacked((b))));\r\n    }\r\n\r\n    function updateMedicalHistory (string memory mh, string memory tp) public{\r\n        if(compareStrings(tp,\"infoEvent\")){\r\n            emit infoEvent(mh);\r\n        }\r\n        if(compareStrings(tp,\"hemoglobinEvent\")){\r\n            emit hemoglobinEvent(mh);\r\n        }\r\n        if(compareStrings(tp,\"appointmentEvent\")){\r\n            emit appointmentEvent(mh);\r\n        }\r\n        medicalHistory = mh;\r\n    }\r\n}",
  "sourcePath": "C:\\Users\\Giordy\\Desktop\\vainas del escritorio\\Med.bc\\Med.bc\\contracts\\MedicalHistory.sol",
  "compiler": {
    "name": "solc",
    "version": "0.5.0+commit.1d4f565a.Emscripten.clang"
  },
  "schemaVersion": "3.0.5",
  "updatedAt": "2020-04-04T22:14:43.666Z",
  "devdoc": {
    "methods": {}
  },
  "userdoc": {
    "methods": {}
  }
}