{
  "contractName": "Patient",
  "abi": [
    {
      "constant": true,
      "inputs": [],
      "name": "name",
      "outputs": [
        {
          "name": "",
          "type": "string"
        }
      ],
      "payable": false,
      "stateMutability": "view",
      "type": "function"
    },
    {
      "constant": true,
      "inputs": [],
      "name": "password",
      "outputs": [
        {
          "name": "",
          "type": "string"
        }
      ],
      "payable": false,
      "stateMutability": "view",
      "type": "function"
    },
    {
      "constant": true,
      "inputs": [],
      "name": "myAddress",
      "outputs": [
        {
          "name": "",
          "type": "address"
        }
      ],
      "payable": false,
      "stateMutability": "view",
      "type": "function"
    },
    {
      "constant": true,
      "inputs": [],
      "name": "aType",
      "outputs": [
        {
          "name": "",
          "type": "string"
        }
      ],
      "payable": false,
      "stateMutability": "view",
      "type": "function"
    },
    {
      "constant": true,
      "inputs": [],
      "name": "publicKey",
      "outputs": [
        {
          "name": "",
          "type": "string"
        }
      ],
      "payable": false,
      "stateMutability": "view",
      "type": "function"
    },
    {
      "constant": true,
      "inputs": [],
      "name": "mHistory",
      "outputs": [
        {
          "name": "",
          "type": "address"
        }
      ],
      "payable": false,
      "stateMutability": "view",
      "type": "function"
    },
    {
      "constant": true,
      "inputs": [],
      "name": "did",
      "outputs": [
        {
          "name": "",
          "type": "string"
        }
      ],
      "payable": false,
      "stateMutability": "view",
      "type": "function"
    },
    {
      "constant": true,
      "inputs": [],
      "name": "uid",
      "outputs": [
        {
          "name": "",
          "type": "string"
        }
      ],
      "payable": false,
      "stateMutability": "view",
      "type": "function"
    },
    {
      "inputs": [
        {
          "name": "ma",
          "type": "address"
        },
        {
          "name": "nm",
          "type": "string"
        },
        {
          "name": "ui",
          "type": "string"
        },
        {
          "name": "di",
          "type": "string"
        },
        {
          "name": "pass",
          "type": "string"
        },
        {
          "name": "tp",
          "type": "string"
        },
        {
          "name": "pbKey",
          "type": "string"
        }
      ],
      "payable": false,
      "stateMutability": "nonpayable",
      "type": "constructor"
    }
  ],
  "bytecode": "0x60806040523480156200001157600080fd5b506040516200184c3803806200184c833981018060405260e08110156200003757600080fd5b810190808051906020019092919080516401000000008111156200005a57600080fd5b828101905060208101848111156200007157600080fd5b81518560018202830111640100000000821117156200008f57600080fd5b50509291906020018051640100000000811115620000ac57600080fd5b82810190506020810184811115620000c357600080fd5b8151856001820283011164010000000082111715620000e157600080fd5b50509291906020018051640100000000811115620000fe57600080fd5b828101905060208101848111156200011557600080fd5b81518560018202830111640100000000821117156200013357600080fd5b505092919060200180516401000000008111156200015057600080fd5b828101905060208101848111156200016757600080fd5b81518560018202830111640100000000821117156200018557600080fd5b50509291906020018051640100000000811115620001a257600080fd5b82810190506020810184811115620001b957600080fd5b8151856001820283011164010000000082111715620001d757600080fd5b50509291906020018051640100000000811115620001f457600080fd5b828101905060208101848111156200020b57600080fd5b81518560018202830111640100000000821117156200022957600080fd5b505092919050505086868686868686866000806101000a81548173ffffffffffffffffffffffffffffffffffffffff021916908373ffffffffffffffffffffffffffffffffffffffff16021790555085600190805190602001906200029092919062000477565b508460029080519060200190620002a992919062000477565b508360039080519060200190620002c292919062000477565b508260049080519060200190620002db92919062000477565b508160059080519060200190620002f492919062000477565b5080600690805190602001906200030d92919062000477565b50505050505050506200031f620004fe565b8080602001828103825260008152602001602001915050604051809103906000f08015801562000353573d6000803e3d6000fd5b50600760006101000a81548173ffffffffffffffffffffffffffffffffffffffff021916908373ffffffffffffffffffffffffffffffffffffffff160217905550866000806101000a81548173ffffffffffffffffffffffffffffffffffffffff021916908373ffffffffffffffffffffffffffffffffffffffff1602179055508560019080519060200190620003ec92919062000477565b5084600290805190602001906200040592919062000477565b5083600390805190602001906200041e92919062000477565b5082600490805190602001906200043792919062000477565b5081600590805190602001906200045092919062000477565b5080600690805190602001906200046992919062000477565b505050505050505062000537565b828054600181600116156101000203166002900490600052602060002090601f016020900481019282601f10620004ba57805160ff1916838001178555620004eb565b82800160010185558215620004eb579182015b82811115620004ea578251825591602001919060010190620004cd565b5b509050620004fa91906200050f565b5090565b604051610a398062000e1383390190565b6200053491905b808211156200053057600081600090555060010162000516565b5090565b90565b6108cc80620005476000396000f3fe60806040526004361061008e576000357c0100000000000000000000000000000000000000000000000000000000900463ffffffff16806306fdde0314610093578063224b610b1461012357806326b85ee1146101b35780634d4405a91461020a57806363ffab311461029a57806368c411571461032a578063e6fcc84b14610381578063f514ce3614610411575b600080fd5b34801561009f57600080fd5b506100a86104a1565b6040518080602001828103825283818151815260200191508051906020019080838360005b838110156100e85780820151818401526020810190506100cd565b50505050905090810190601f1680156101155780820380516001836020036101000a031916815260200191505b509250505060405180910390f35b34801561012f57600080fd5b5061013861053f565b6040518080602001828103825283818151815260200191508051906020019080838360005b8381101561017857808201518184015260208101905061015d565b50505050905090810190601f1680156101a55780820380516001836020036101000a031916815260200191505b509250505060405180910390f35b3480156101bf57600080fd5b506101c86105dd565b604051808273ffffffffffffffffffffffffffffffffffffffff1673ffffffffffffffffffffffffffffffffffffffff16815260200191505060405180910390f35b34801561021657600080fd5b5061021f610602565b6040518080602001828103825283818151815260200191508051906020019080838360005b8381101561025f578082015181840152602081019050610244565b50505050905090810190601f16801561028c5780820380516001836020036101000a031916815260200191505b509250505060405180910390f35b3480156102a657600080fd5b506102af6106a0565b6040518080602001828103825283818151815260200191508051906020019080838360005b838110156102ef5780820151818401526020810190506102d4565b50505050905090810190601f16801561031c5780820380516001836020036101000a031916815260200191505b509250505060405180910390f35b34801561033657600080fd5b5061033f61073e565b604051808273ffffffffffffffffffffffffffffffffffffffff1673ffffffffffffffffffffffffffffffffffffffff16815260200191505060405180910390f35b34801561038d57600080fd5b50610396610764565b6040518080602001828103825283818151815260200191508051906020019080838360005b838110156103d65780820151818401526020810190506103bb565b50505050905090810190601f1680156104035780820380516001836020036101000a031916815260200191505b509250505060405180910390f35b34801561041d57600080fd5b50610426610802565b6040518080602001828103825283818151815260200191508051906020019080838360005b8381101561046657808201518184015260208101905061044b565b50505050905090810190601f1680156104935780820380516001836020036101000a031916815260200191505b509250505060405180910390f35b60018054600181600116156101000203166002900480601f0160208091040260200160405190810160405280929190818152602001828054600181600116156101000203166002900480156105375780601f1061050c57610100808354040283529160200191610537565b820191906000526020600020905b81548152906001019060200180831161051a57829003601f168201915b505050505081565b60048054600181600116156101000203166002900480601f0160208091040260200160405190810160405280929190818152602001828054600181600116156101000203166002900480156105d55780601f106105aa576101008083540402835291602001916105d5565b820191906000526020600020905b8154815290600101906020018083116105b857829003601f168201915b505050505081565b6000809054906101000a900473ffffffffffffffffffffffffffffffffffffffff1681565b60058054600181600116156101000203166002900480601f0160208091040260200160405190810160405280929190818152602001828054600181600116156101000203166002900480156106985780601f1061066d57610100808354040283529160200191610698565b820191906000526020600020905b81548152906001019060200180831161067b57829003601f168201915b505050505081565b60068054600181600116156101000203166002900480601f0160208091040260200160405190810160405280929190818152602001828054600181600116156101000203166002900480156107365780601f1061070b57610100808354040283529160200191610736565b820191906000526020600020905b81548152906001019060200180831161071957829003601f168201915b505050505081565b600760009054906101000a900473ffffffffffffffffffffffffffffffffffffffff1681565b60038054600181600116156101000203166002900480601f0160208091040260200160405190810160405280929190818152602001828054600181600116156101000203166002900480156107fa5780601f106107cf576101008083540402835291602001916107fa565b820191906000526020600020905b8154815290600101906020018083116107dd57829003601f168201915b505050505081565b60028054600181600116156101000203166002900480601f0160208091040260200160405190810160405280929190818152602001828054600181600116156101000203166002900480156108985780601f1061086d57610100808354040283529160200191610898565b820191906000526020600020905b81548152906001019060200180831161087b57829003601f168201915b50505050508156fea165627a7a72305820536b9461806a54ab169a7de74d50f1b257ea35e3b7c42135698f705c33a378110029608060405234801561001057600080fd5b50604051610a39380380610a398339810180604052602081101561003357600080fd5b81019080805164010000000081111561004b57600080fd5b8281019050602081018481111561006157600080fd5b815185600182028301116401000000008211171561007e57600080fd5b5050929190505050806000908051906020019061009c9291906100a3565b5050610148565b828054600181600116156101000203166002900490600052602060002090601f016020900481019282601f106100e457805160ff1916838001178555610112565b82800160010185558215610112579182015b828111156101115782518255916020019190600101906100f6565b5b50905061011f9190610123565b5090565b61014591905b80821115610141576000816000905550600101610129565b5090565b90565b6108e2806101576000396000f3fe608060405260043610610057576000357c0100000000000000000000000000000000000000000000000000000000900463ffffffff168063215fd7e71461005c578063bed34bba146101bb578063e0a4c8d614610332575b600080fd5b34801561006857600080fd5b506101b96004803603604081101561007f57600080fd5b810190808035906020019064010000000081111561009c57600080fd5b8201836020820111156100ae57600080fd5b803590602001918460018302840111640100000000831117156100d057600080fd5b91908080601f016020809104026020016040519081016040528093929190818152602001838380828437600081840152601f19601f8201169050808301925050505050505091929192908035906020019064010000000081111561013357600080fd5b82018360208201111561014557600080fd5b8035906020019184600183028401116401000000008311171561016757600080fd5b91908080601f016020809104026020016040519081016040528093929190818152602001838380828437600081840152601f19601f8201169050808301925050505050505091929192905050506103c2565b005b3480156101c757600080fd5b50610318600480360360408110156101de57600080fd5b81019080803590602001906401000000008111156101fb57600080fd5b82018360208201111561020d57600080fd5b8035906020019184600183028401116401000000008311171561022f57600080fd5b91908080601f016020809104026020016040519081016040528093929190818152602001838380828437600081840152601f19601f8201169050808301925050505050505091929192908035906020019064010000000081111561029257600080fd5b8201836020820111156102a457600080fd5b803590602001918460018302840111640100000000831117156102c657600080fd5b91908080601f016020809104026020016040519081016040528093929190818152602001838380828437600081840152601f19601f820116905080830192505050505050509192919290505050610680565b604051808215151515815260200191505060405180910390f35b34801561033e57600080fd5b50610347610773565b6040518080602001828103825283818151815260200191508051906020019080838360005b8381101561038757808201518184015260208101905061036c565b50505050905090810190601f1680156103b45780820380516001836020036101000a031916815260200191505b509250505060405180910390f35b610401816040805190810160405280600981526020017f696e666f4576656e740000000000000000000000000000000000000000000000815250610680565b156104a3577f571cd22fdb7ee756a91b2a34cbc2b29ea884e4f6d393ae0e33c2e04fde4a4a3f826040518080602001828103825283818151815260200191508051906020019080838360005b8381101561046857808201518184015260208101905061044d565b50505050905090810190601f1680156104955780820380516001836020036101000a031916815260200191505b509250505060405180910390a15b6104e2816040805190810160405280600f81526020017f68656d6f676c6f62696e4576656e740000000000000000000000000000000000815250610680565b15610584577f1da8c9d647b4530e17c9b1e16bbfb11e6e3d796d13ffcc847de1672292eb7de9826040518080602001828103825283818151815260200191508051906020019080838360005b8381101561054957808201518184015260208101905061052e565b50505050905090810190601f1680156105765780820380516001836020036101000a031916815260200191505b509250505060405180910390a15b6105c3816040805190810160405280601081526020017f6170706f696e746d656e744576656e7400000000000000000000000000000000815250610680565b15610665577f1b2f48f8f59d919b6c9da8548b4541e99d1887b87e05b9e32e2d21de567ba0c6826040518080602001828103825283818151815260200191508051906020019080838360005b8381101561062a57808201518184015260208101905061060f565b50505050905090810190601f1680156106575780820380516001836020036101000a031916815260200191505b509250505060405180910390a15b816000908051906020019061067b929190610811565b505050565b6000816040516020018082805190602001908083835b6020831015156106bb5780518252602082019150602081019050602083039250610696565b6001836020036101000a03801982511681845116808217855250505050505090500191505060405160208183030381529060405280519060200120836040516020018082805190602001908083835b60208310151561072f578051825260208201915060208101905060208303925061070a565b6001836020036101000a0380198251168184511680821785525050505050509050019150506040516020818303038152906040528051906020012014905092915050565b60008054600181600116156101000203166002900480601f0160208091040260200160405190810160405280929190818152602001828054600181600116156101000203166002900480156108095780601f106107de57610100808354040283529160200191610809565b820191906000526020600020905b8154815290600101906020018083116107ec57829003601f168201915b505050505081565b828054600181600116156101000203166002900490600052602060002090601f016020900481019282601f1061085257805160ff1916838001178555610880565b82800160010185558215610880579182015b8281111561087f578251825591602001919060010190610864565b5b50905061088d9190610891565b5090565b6108b391905b808211156108af576000816000905550600101610897565b5090565b9056fea165627a7a72305820128087e41d18e2996e359b46458534bd4aa0de49e3c55aaff79b0e4049099d860029",
  "source": "pragma solidity ^0.5.0;\r\nimport './MedicalHistory.sol';\r\nimport './Agent.sol';\r\n\r\ncontract Patient is Agent{\r\n\r\n    MedicalHistory public mHistory;\r\n\r\n    constructor(address ma, string memory nm,string memory ui, string memory di,string memory pass, string memory tp, string memory pbKey) Agent(ma,nm,ui,di,pass,tp,pbKey) public{\r\n        mHistory = new MedicalHistory({mh:\"\"});\r\n        myAddress = ma;\r\n        name = nm;\r\n        uid = ui;\r\n        did = di;\r\n        password = pass;\r\n        aType = tp;\r\n        publicKey = pbKey;\r\n    }\r\n\r\n}",
  "sourcePath": "C:\\Users\\Giordy\\Desktop\\vainas del escritorio\\Med.bc\\Med.bc\\contracts\\Patient.sol",
  "compiler": {
    "name": "solc",
    "version": "0.5.0+commit.1d4f565a.Emscripten.clang"
  },
  "schemaVersion": "3.0.5",
  "updatedAt": "2020-04-04T22:14:43.667Z",
  "devdoc": {
    "methods": {}
  },
  "userdoc": {
    "methods": {}
  }
}