{
  "contractName": "Platform",
  "abi": [
    {
      "constant": true,
      "inputs": [
        {
          "name": "",
          "type": "uint256"
        }
      ],
      "name": "agents",
      "outputs": [
        {
          "name": "",
          "type": "address"
        }
      ],
      "payable": false,
      "stateMutability": "view",
      "type": "function",
      "signature": "0x513856c8"
    },
    {
      "constant": true,
      "inputs": [
        {
          "name": "",
          "type": "address"
        }
      ],
      "name": "registeredAgents",
      "outputs": [
        {
          "name": "",
          "type": "uint256"
        }
      ],
      "payable": false,
      "stateMutability": "view",
      "type": "function",
      "signature": "0x74ee82fc"
    },
    {
      "constant": true,
      "inputs": [
        {
          "name": "",
          "type": "uint256"
        }
      ],
      "name": "relationships",
      "outputs": [
        {
          "name": "patient",
          "type": "address"
        },
        {
          "name": "other",
          "type": "address"
        },
        {
          "name": "access",
          "type": "string"
        },
        {
          "name": "rType",
          "type": "string"
        },
        {
          "name": "active",
          "type": "bool"
        },
        {
          "name": "key",
          "type": "string"
        }
      ],
      "payable": false,
      "stateMutability": "view",
      "type": "function",
      "signature": "0x94aa2718"
    },
    {
      "constant": true,
      "inputs": [
        {
          "name": "",
          "type": "address"
        }
      ],
      "name": "agentPrivateKeys",
      "outputs": [
        {
          "name": "",
          "type": "string"
        }
      ],
      "payable": false,
      "stateMutability": "view",
      "type": "function",
      "signature": "0xa21caa69"
    },
    {
      "constant": true,
      "inputs": [],
      "name": "relationshipsCount",
      "outputs": [
        {
          "name": "",
          "type": "uint256"
        }
      ],
      "payable": false,
      "stateMutability": "view",
      "type": "function",
      "signature": "0xaa5eabf1"
    },
    {
      "constant": true,
      "inputs": [],
      "name": "agentsCount",
      "outputs": [
        {
          "name": "",
          "type": "uint256"
        }
      ],
      "payable": false,
      "stateMutability": "view",
      "type": "function",
      "signature": "0xdf30ae37"
    },
    {
      "inputs": [],
      "payable": false,
      "stateMutability": "nonpayable",
      "type": "constructor",
      "signature": "constructor"
    },
    {
      "anonymous": false,
      "inputs": [
        {
          "indexed": false,
          "name": "agentAddress",
          "type": "address"
        }
      ],
      "name": "registerEvent",
      "type": "event",
      "signature": "0x60d9b769ccb69037368a6e5d5515b08014a71ed00794df5500bdf5683be488d5"
    },
    {
      "anonymous": false,
      "inputs": [
        {
          "indexed": false,
          "name": "i",
          "type": "uint256"
        },
        {
          "indexed": false,
          "name": "access",
          "type": "string"
        }
      ],
      "name": "accessEvent",
      "type": "event",
      "signature": "0x28fd100052557c591d4bcfc0fb7067949b6a45994ada5bf105b64abda3ae1703"
    },
    {
      "anonymous": false,
      "inputs": [
        {
          "indexed": false,
          "name": "ow",
          "type": "address"
        },
        {
          "indexed": false,
          "name": "ot",
          "type": "address"
        }
      ],
      "name": "relationshipEvent",
      "type": "event",
      "signature": "0x5717b7661433cef5bffca9f9059d0e57d590283d1d1c09d789ad409232d9fa12"
    },
    {
      "anonymous": false,
      "inputs": [
        {
          "indexed": false,
          "name": "i",
          "type": "uint256"
        },
        {
          "indexed": false,
          "name": "active",
          "type": "bool"
        }
      ],
      "name": "activeEvent",
      "type": "event",
      "signature": "0x040a5605a2101baaee10653d328d8033107e42933f5da2ebc7c3d86c320ace2c"
    },
    {
      "anonymous": false,
      "inputs": [
        {
          "indexed": false,
          "name": "ow",
          "type": "address"
        },
        {
          "indexed": false,
          "name": "ot1",
          "type": "address"
        },
        {
          "indexed": false,
          "name": "ot2",
          "type": "address"
        }
      ],
      "name": "otherEvent",
      "type": "event",
      "signature": "0xa1724cdc6b9d23bb4271299763c66c4b65957ab2a93669516e4556835d348199"
    },
    {
      "anonymous": false,
      "inputs": [
        {
          "indexed": false,
          "name": "ow1",
          "type": "address"
        },
        {
          "indexed": false,
          "name": "ot1",
          "type": "address"
        },
        {
          "indexed": false,
          "name": "ow2",
          "type": "address"
        },
        {
          "indexed": false,
          "name": "ot2",
          "type": "address"
        }
      ],
      "name": "bothEvent",
      "type": "event",
      "signature": "0x95269f8247fe43fc63812ce8b3074fee98e64d563c328c17ed76d169553304be"
    },
    {
      "anonymous": false,
      "inputs": [
        {
          "indexed": false,
          "name": "ow",
          "type": "address"
        },
        {
          "indexed": false,
          "name": "ot",
          "type": "address"
        }
      ],
      "name": "oneEvent",
      "type": "event",
      "signature": "0xf4d6fc78b42270bec0d54ea5933b43882e61ffa8e10965c21c07977381f35dff"
    },
    {
      "anonymous": false,
      "inputs": [
        {
          "indexed": false,
          "name": "ow",
          "type": "uint256"
        },
        {
          "indexed": false,
          "name": "key",
          "type": "string"
        }
      ],
      "name": "keyEvent",
      "type": "event",
      "signature": "0x90e7906aeeeebb23458f4832b055dab4fa77cdeb2b92fdd782aac49f276ffb41"
    },
    {
      "constant": true,
      "inputs": [
        {
          "name": "a",
          "type": "string"
        },
        {
          "name": "b",
          "type": "string"
        }
      ],
      "name": "compareStrings",
      "outputs": [
        {
          "name": "",
          "type": "bool"
        }
      ],
      "payable": false,
      "stateMutability": "view",
      "type": "function",
      "signature": "0xbed34bba"
    },
    {
      "constant": false,
      "inputs": [
        {
          "name": "name",
          "type": "string"
        },
        {
          "name": "uid",
          "type": "string"
        },
        {
          "name": "did",
          "type": "string"
        },
        {
          "name": "password",
          "type": "string"
        },
        {
          "name": "tp",
          "type": "string"
        },
        {
          "name": "phrase",
          "type": "string"
        },
        {
          "name": "pk",
          "type": "string"
        },
        {
          "name": "pbKey",
          "type": "string"
        }
      ],
      "name": "registerAgent",
      "outputs": [],
      "payable": false,
      "stateMutability": "nonpayable",
      "type": "function",
      "signature": "0x6b6bff17"
    },
    {
      "constant": true,
      "inputs": [],
      "name": "getAgentIndex",
      "outputs": [
        {
          "name": "",
          "type": "uint256"
        }
      ],
      "payable": false,
      "stateMutability": "view",
      "type": "function",
      "signature": "0xf7a34120"
    },
    {
      "constant": true,
      "inputs": [
        {
          "name": "phrase",
          "type": "string"
        }
      ],
      "name": "getAgentByPhrase",
      "outputs": [
        {
          "name": "",
          "type": "address"
        }
      ],
      "payable": false,
      "stateMutability": "view",
      "type": "function",
      "signature": "0x6ac2af10"
    },
    {
      "constant": false,
      "inputs": [
        {
          "name": "ow",
          "type": "address"
        },
        {
          "name": "ot",
          "type": "address"
        },
        {
          "name": "acc",
          "type": "string"
        },
        {
          "name": "tp",
          "type": "string"
        },
        {
          "name": "act",
          "type": "bool"
        },
        {
          "name": "key",
          "type": "string"
        }
      ],
      "name": "addRelationship",
      "outputs": [],
      "payable": false,
      "stateMutability": "nonpayable",
      "type": "function",
      "signature": "0xbeb13053"
    },
    {
      "constant": false,
      "inputs": [
        {
          "name": "i",
          "type": "uint256"
        }
      ],
      "name": "deleteRelationship",
      "outputs": [],
      "payable": false,
      "stateMutability": "nonpayable",
      "type": "function",
      "signature": "0x31fbf4ef"
    },
    {
      "constant": false,
      "inputs": [
        {
          "name": "i",
          "type": "uint256"
        },
        {
          "name": "ac",
          "type": "string"
        }
      ],
      "name": "setAccess",
      "outputs": [],
      "payable": false,
      "stateMutability": "nonpayable",
      "type": "function",
      "signature": "0xddd7e363"
    },
    {
      "constant": false,
      "inputs": [
        {
          "name": "i",
          "type": "uint256"
        },
        {
          "name": "ac",
          "type": "bool"
        }
      ],
      "name": "setActive",
      "outputs": [],
      "payable": false,
      "stateMutability": "nonpayable",
      "type": "function",
      "signature": "0xe60a955d"
    },
    {
      "constant": false,
      "inputs": [
        {
          "name": "i",
          "type": "uint256"
        },
        {
          "name": "ad",
          "type": "address"
        }
      ],
      "name": "setOther",
      "outputs": [],
      "payable": false,
      "stateMutability": "nonpayable",
      "type": "function",
      "signature": "0xd101aa11"
    },
    {
      "constant": false,
      "inputs": [
        {
          "name": "i",
          "type": "uint256"
        },
        {
          "name": "i2",
          "type": "uint256"
        }
      ],
      "name": "setBoth",
      "outputs": [],
      "payable": false,
      "stateMutability": "nonpayable",
      "type": "function",
      "signature": "0x92cf1ef5"
    },
    {
      "constant": false,
      "inputs": [
        {
          "name": "i",
          "type": "uint256"
        }
      ],
      "name": "setOne",
      "outputs": [],
      "payable": false,
      "stateMutability": "nonpayable",
      "type": "function",
      "signature": "0x77f25566"
    },
    {
      "constant": false,
      "inputs": [
        {
          "name": "i",
          "type": "uint256"
        },
        {
          "name": "key",
          "type": "string"
        }
      ],
      "name": "setKey",
      "outputs": [],
      "payable": false,
      "stateMutability": "nonpayable",
      "type": "function",
      "signature": "0x0ca04256"
    }
  ],
  "bytecode": "0x608060405234801561001057600080fd5b5061531d806100206000396000f3fe6080604052600436106200010f576000357c0100000000000000000000000000000000000000000000000000000000900463ffffffff1680630ca04256146200011457806331fbf4ef14620001ed578063513856c8146200022c5780636ac2af1014620002ab5780636b6bff1714620003ba57806374ee82fc14620008c057806377f25566146200092957806392cf1ef5146200096857806394aa271814620009b1578063a21caa691462000bbb578063aa5eabf11462000c8c578063beb130531462000cba578063bed34bba1462000f09578063d101aa11146200108a578063ddd7e36314620010e9578063df30ae3714620011c2578063e60a955d14620011f0578063f7a34120146200123b575b600080fd5b3480156200012157600080fd5b50620001eb600480360360408110156200013a57600080fd5b8101908080359060200190929190803590602001906401000000008111156200016257600080fd5b8201836020820111156200017557600080fd5b803590602001918460018302840111640100000000831117156200019857600080fd5b91908080601f016020809104026020016040519081016040528093929190818152602001838380828437600081840152601f19601f82011690508083019250505050505050919291929050505062001269565b005b348015620001fa57600080fd5b506200022a600480360360208110156200021357600080fd5b810190808035906020019092919050505062001341565b005b3480156200023957600080fd5b5062000269600480360360208110156200025257600080fd5b8101908080359060200190929190505050620013f2565b604051808273ffffffffffffffffffffffffffffffffffffffff1673ffffffffffffffffffffffffffffffffffffffff16815260200191505060405180910390f35b348015620002b857600080fd5b506200037860048036036020811015620002d157600080fd5b8101908080359060200190640100000000811115620002ef57600080fd5b8201836020820111156200030257600080fd5b803590602001918460018302840111640100000000831117156200032557600080fd5b91908080601f016020809104026020016040519081016040528093929190818152602001838380828437600081840152601f19601f82011690508083019250505050505050919291929050505062001425565b604051808273ffffffffffffffffffffffffffffffffffffffff1673ffffffffffffffffffffffffffffffffffffffff16815260200191505060405180910390f35b348015620003c757600080fd5b50620008be6004803603610100811015620003e157600080fd5b8101908080359060200190640100000000811115620003ff57600080fd5b8201836020820111156200041257600080fd5b803590602001918460018302840111640100000000831117156200043557600080fd5b91908080601f016020809104026020016040519081016040528093929190818152602001838380828437600081840152601f19601f820116905080830192505050505050509192919290803590602001906401000000008111156200049957600080fd5b820183602082011115620004ac57600080fd5b80359060200191846001830284011164010000000083111715620004cf57600080fd5b91908080601f016020809104026020016040519081016040528093929190818152602001838380828437600081840152601f19601f820116905080830192505050505050509192919290803590602001906401000000008111156200053357600080fd5b8201836020820111156200054657600080fd5b803590602001918460018302840111640100000000831117156200056957600080fd5b91908080601f016020809104026020016040519081016040528093929190818152602001838380828437600081840152601f19601f82011690508083019250505050505050919291929080359060200190640100000000811115620005cd57600080fd5b820183602082011115620005e057600080fd5b803590602001918460018302840111640100000000831117156200060357600080fd5b91908080601f016020809104026020016040519081016040528093929190818152602001838380828437600081840152601f19601f820116905080830192505050505050509192919290803590602001906401000000008111156200066757600080fd5b8201836020820111156200067a57600080fd5b803590602001918460018302840111640100000000831117156200069d57600080fd5b91908080601f016020809104026020016040519081016040528093929190818152602001838380828437600081840152601f19601f820116905080830192505050505050509192919290803590602001906401000000008111156200070157600080fd5b8201836020820111156200071457600080fd5b803590602001918460018302840111640100000000831117156200073757600080fd5b91908080601f016020809104026020016040519081016040528093929190818152602001838380828437600081840152601f19601f820116905080830192505050505050509192919290803590602001906401000000008111156200079b57600080fd5b820183602082011115620007ae57600080fd5b80359060200191846001830284011164010000000083111715620007d157600080fd5b91908080601f016020809104026020016040519081016040528093929190818152602001838380828437600081840152601f19601f820116905080830192505050505050509192919290803590602001906401000000008111156200083557600080fd5b8201836020820111156200084857600080fd5b803590602001918460018302840111640100000000831117156200086b57600080fd5b91908080601f016020809104026020016040519081016040528093929190818152602001838380828437600081840152601f19601f820116905080830192505050505050509192919290505050620014bc565b005b348015620008cd57600080fd5b506200091360048036036020811015620008e657600080fd5b81019080803573ffffffffffffffffffffffffffffffffffffffff16906020019092919050505062001d73565b6040518082815260200191505060405180910390f35b3480156200093657600080fd5b5062000966600480360360208110156200094f57600080fd5b810190808035906020019092919050505062001d8b565b005b3480156200097557600080fd5b50620009af600480360360408110156200098e57600080fd5b81019080803590602001909291908035906020019092919050505062001f84565b005b348015620009be57600080fd5b50620009ee60048036036020811015620009d757600080fd5b810190808035906020019092919050505062002345565b604051808773ffffffffffffffffffffffffffffffffffffffff1673ffffffffffffffffffffffffffffffffffffffff1681526020018673ffffffffffffffffffffffffffffffffffffffff1673ffffffffffffffffffffffffffffffffffffffff16815260200180602001806020018515151515815260200180602001848103845288818151815260200191508051906020019080838360005b8381101562000aa657808201518184015260208101905062000a89565b50505050905090810190601f16801562000ad45780820380516001836020036101000a031916815260200191505b50848103835287818151815260200191508051906020019080838360005b8381101562000b0f57808201518184015260208101905062000af2565b50505050905090810190601f16801562000b3d5780820380516001836020036101000a031916815260200191505b50848103825285818151815260200191508051906020019080838360005b8381101562000b7857808201518184015260208101905062000b5b565b50505050905090810190601f16801562000ba65780820380516001836020036101000a031916815260200191505b50995050505050505050505060405180910390f35b34801562000bc857600080fd5b5062000c0e6004803603602081101562000be157600080fd5b81019080803573ffffffffffffffffffffffffffffffffffffffff169060200190929190505050620025a2565b6040518080602001828103825283818151815260200191508051906020019080838360005b8381101562000c5057808201518184015260208101905062000c33565b50505050905090810190601f16801562000c7e5780820380516001836020036101000a031916815260200191505b509250505060405180910390f35b34801562000c9957600080fd5b5062000ca462002656565b6040518082815260200191505060405180910390f35b34801562000cc757600080fd5b5062000f07600480360360c081101562000ce057600080fd5b81019080803573ffffffffffffffffffffffffffffffffffffffff169060200190929190803573ffffffffffffffffffffffffffffffffffffffff1690602001909291908035906020019064010000000081111562000d3e57600080fd5b82018360208201111562000d5157600080fd5b8035906020019184600183028401116401000000008311171562000d7457600080fd5b91908080601f016020809104026020016040519081016040528093929190818152602001838380828437600081840152601f19601f8201169050808301925050505050505091929192908035906020019064010000000081111562000dd857600080fd5b82018360208201111562000deb57600080fd5b8035906020019184600183028401116401000000008311171562000e0e57600080fd5b91908080601f016020809104026020016040519081016040528093929190818152602001838380828437600081840152601f19601f8201169050808301925050505050505091929192908035151590602001909291908035906020019064010000000081111562000e7e57600080fd5b82018360208201111562000e9157600080fd5b8035906020019184600183028401116401000000008311171562000eb457600080fd5b91908080601f016020809104026020016040519081016040528093929190818152602001838380828437600081840152601f19601f8201169050808301925050505050505091929192905050506200265c565b005b34801562000f1657600080fd5b50620010706004803603604081101562000f2f57600080fd5b810190808035906020019064010000000081111562000f4d57600080fd5b82018360208201111562000f6057600080fd5b8035906020019184600183028401116401000000008311171562000f8357600080fd5b91908080601f016020809104026020016040519081016040528093929190818152602001838380828437600081840152601f19601f8201169050808301925050505050505091929192908035906020019064010000000081111562000fe757600080fd5b82018360208201111562000ffa57600080fd5b803590602001918460018302840111640100000000831117156200101d57600080fd5b91908080601f016020809104026020016040519081016040528093929190818152602001838380828437600081840152601f19601f8201169050808301925050505050505091929192905050506200288c565b604051808215151515815260200191505060405180910390f35b3480156200109757600080fd5b50620010e760048036036040811015620010b057600080fd5b8101908080359060200190929190803573ffffffffffffffffffffffffffffffffffffffff16906020019092919050505062002983565b005b348015620010f657600080fd5b50620011c0600480360360408110156200110f57600080fd5b8101908080359060200190929190803590602001906401000000008111156200113757600080fd5b8201836020820111156200114a57600080fd5b803590602001918460018302840111640100000000831117156200116d57600080fd5b91908080601f016020809104026020016040519081016040528093929190818152602001838380828437600081840152601f19601f82011690508083019250505050505050919291929050505062002b50565b005b348015620011cf57600080fd5b50620011da62002c28565b6040518082815260200191505060405180910390f35b348015620011fd57600080fd5b5062001239600480360360408110156200121657600080fd5b810190808035906020019092919080351515906020019092919050505062002c2e565b005b3480156200124857600080fd5b506200125362002ca3565b6040518082815260200191505060405180910390f35b806004600084815260200190815260200160002060050190805190602001906200129592919062002cea565b507f90e7906aeeeebb23458f4832b055dab4fa77cdeb2b92fdd782aac49f276ffb4182826040518083815260200180602001828103825283818151815260200191508051906020019080838360005b8381101562001301578082015181840152602081019050620012e4565b50505050905090810190601f1680156200132f5780820380516001836020036101000a031916815260200191505b50935050505060405180910390a15050565b60046000828152602001908152602001600020600080820160006101000a81549073ffffffffffffffffffffffffffffffffffffffff02191690556001820160006101000a81549073ffffffffffffffffffffffffffffffffffffffff0219169055600282016000620013b5919062002d71565b600382016000620013c7919062002d71565b6004820160006101000a81549060ff0219169055600582016000620013ed919062002d71565b505050565b60006020528060005260406000206000915054906101000a900473ffffffffffffffffffffffffffffffffffffffff1681565b60006001826040518082805190602001908083835b6020831015156200146157805182526020820191506020810190506020830392506200143a565b6001836020036101000a038019825116818451168082178552505050505050905001915050908152602001604051809103902060009054906101000a900473ffffffffffffffffffffffffffffffffffffffff169050919050565b6005600081548092919060010191905055506200150f846040805190810160405280600281526020017f70740000000000000000000000000000000000000000000000000000000000008152506200288c565b156200186c57338888888888866200152662002dbd565b808873ffffffffffffffffffffffffffffffffffffffff1673ffffffffffffffffffffffffffffffffffffffff16815260200180602001806020018060200180602001806020018060200187810387528d818151815260200191508051906020019080838360005b83811015620015ab5780820151818401526020810190506200158e565b50505050905090810190601f168015620015d95780820380516001836020036101000a031916815260200191505b5087810386528c818151815260200191508051906020019080838360005b8381101562001614578082015181840152602081019050620015f7565b50505050905090810190601f168015620016425780820380516001836020036101000a031916815260200191505b5087810385528b818151815260200191508051906020019080838360005b838110156200167d57808201518184015260208101905062001660565b50505050905090810190601f168015620016ab5780820380516001836020036101000a031916815260200191505b5087810384528a818151815260200191508051906020019080838360005b83811015620016e6578082015181840152602081019050620016c9565b50505050905090810190601f168015620017145780820380516001836020036101000a031916815260200191505b50878103835289818151815260200191508051906020019080838360005b838110156200174f57808201518184015260208101905062001732565b50505050905090810190601f1680156200177d5780820380516001836020036101000a031916815260200191505b50878103825288818151815260200191508051906020019080838360005b83811015620017b85780820151818401526020810190506200179b565b50505050905090810190601f168015620017e65780820380516001836020036101000a031916815260200191505b509d5050505050505050505050505050604051809103906000f08015801562001813573d6000803e3d6000fd5b50600080600554815260200190815260200160002060006101000a81548173ffffffffffffffffffffffffffffffffffffffff021916908373ffffffffffffffffffffffffffffffffffffffff16021790555062001bbe565b338888888888866200187d62002dce565b808873ffffffffffffffffffffffffffffffffffffffff1673ffffffffffffffffffffffffffffffffffffffff16815260200180602001806020018060200180602001806020018060200187810387528d818151815260200191508051906020019080838360005b8381101562001902578082015181840152602081019050620018e5565b50505050905090810190601f168015620019305780820380516001836020036101000a031916815260200191505b5087810386528c818151815260200191508051906020019080838360005b838110156200196b5780820151818401526020810190506200194e565b50505050905090810190601f168015620019995780820380516001836020036101000a031916815260200191505b5087810385528b818151815260200191508051906020019080838360005b83811015620019d4578082015181840152602081019050620019b7565b50505050905090810190601f16801562001a025780820380516001836020036101000a031916815260200191505b5087810384528a818151815260200191508051906020019080838360005b8381101562001a3d57808201518184015260208101905062001a20565b50505050905090810190601f16801562001a6b5780820380516001836020036101000a031916815260200191505b50878103835289818151815260200191508051906020019080838360005b8381101562001aa657808201518184015260208101905062001a89565b50505050905090810190601f16801562001ad45780820380516001836020036101000a031916815260200191505b50878103825288818151815260200191508051906020019080838360005b8381101562001b0f57808201518184015260208101905062001af2565b50505050905090810190601f16801562001b3d5780820380516001836020036101000a031916815260200191505b509d5050505050505050505050505050604051809103906000f08015801562001b6a573d6000803e3d6000fd5b50600080600554815260200190815260200160002060006101000a81548173ffffffffffffffffffffffffffffffffffffffff021916908373ffffffffffffffffffffffffffffffffffffffff1602179055505b600554600360003373ffffffffffffffffffffffffffffffffffffffff1673ffffffffffffffffffffffffffffffffffffffff16815260200190815260200160002081905550336001846040518082805190602001908083835b60208310151562001c3f578051825260208201915060208101905060208303925062001c18565b6001836020036101000a038019825116818451168082178552505050505050905001915050908152602001604051809103902060006101000a81548173ffffffffffffffffffffffffffffffffffffffff021916908373ffffffffffffffffffffffffffffffffffffffff16021790555081600260003373ffffffffffffffffffffffffffffffffffffffff1673ffffffffffffffffffffffffffffffffffffffff168152602001908152602001600020908051906020019062001d0592919062002cea565b507f60d9b769ccb69037368a6e5d5515b08014a71ed00794df5500bdf5683be488d533604051808273ffffffffffffffffffffffffffffffffffffffff1673ffffffffffffffffffffffffffffffffffffffff16815260200191505060405180910390a15050505050505050565b60036020528060005260406000206000915090505481565b6040805190810160405280600281526020017f666100000000000000000000000000000000000000000000000000000000000081525060046000838152602001908152602001600020600201908051906020019062001dec92919062002cea565b506040805190810160405280600281526020017f666400000000000000000000000000000000000000000000000000000000000081525060046000838152602001908152602001600020600301908051906020019062001e4e92919062002cea565b5060016004600083815260200190815260200160002060040160006101000a81548160ff0219169083151502179055507ff4d6fc78b42270bec0d54ea5933b43882e61ffa8e10965c21c07977381f35dff6004600083815260200190815260200160002060000160009054906101000a900473ffffffffffffffffffffffffffffffffffffffff166004600084815260200190815260200160002060010160009054906101000a900473ffffffffffffffffffffffffffffffffffffffff16604051808373ffffffffffffffffffffffffffffffffffffffff1673ffffffffffffffffffffffffffffffffffffffff1681526020018273ffffffffffffffffffffffffffffffffffffffff1673ffffffffffffffffffffffffffffffffffffffff1681526020019250505060405180910390a150565b6040805190810160405280600381526020017f66616c000000000000000000000000000000000000000000000000000000000081525060046000848152602001908152602001600020600201908051906020019062001fe592919062002cea565b506040805190810160405280600281526020017f6e6d0000000000000000000000000000000000000000000000000000000000008152506004600084815260200190815260200160002060030190805190602001906200204792919062002cea565b5060016004600084815260200190815260200160002060040160006101000a81548160ff0219169083151502179055506040805190810160405280600281526020017f6661000000000000000000000000000000000000000000000000000000000000815250600460008381526020019081526020016000206002019080519060200190620020d892919062002cea565b506040805190810160405280600281526020017f66640000000000000000000000000000000000000000000000000000000000008152506004600083815260200190815260200160002060030190805190602001906200213a92919062002cea565b5060016004600083815260200190815260200160002060040160006101000a81548160ff0219169083151502179055507f95269f8247fe43fc63812ce8b3074fee98e64d563c328c17ed76d169553304be6004600084815260200190815260200160002060000160009054906101000a900473ffffffffffffffffffffffffffffffffffffffff166004600085815260200190815260200160002060010160009054906101000a900473ffffffffffffffffffffffffffffffffffffffff166004600085815260200190815260200160002060000160009054906101000a900473ffffffffffffffffffffffffffffffffffffffff166004600086815260200190815260200160002060010160009054906101000a900473ffffffffffffffffffffffffffffffffffffffff16604051808573ffffffffffffffffffffffffffffffffffffffff1673ffffffffffffffffffffffffffffffffffffffff1681526020018473ffffffffffffffffffffffffffffffffffffffff1673ffffffffffffffffffffffffffffffffffffffff1681526020018373ffffffffffffffffffffffffffffffffffffffff1673ffffffffffffffffffffffffffffffffffffffff1681526020018273ffffffffffffffffffffffffffffffffffffffff1673ffffffffffffffffffffffffffffffffffffffff16815260200194505050505060405180910390a15050565b60046020528060005260406000206000915090508060000160009054906101000a900473ffffffffffffffffffffffffffffffffffffffff16908060010160009054906101000a900473ffffffffffffffffffffffffffffffffffffffff1690806002018054600181600116156101000203166002900480601f016020809104026020016040519081016040528092919081815260200182805460018160011615610100020316600290048015620024415780601f10620024155761010080835404028352916020019162002441565b820191906000526020600020905b8154815290600101906020018083116200242357829003601f168201915b505050505090806003018054600181600116156101000203166002900480601f016020809104026020016040519081016040528092919081815260200182805460018160011615610100020316600290048015620024e35780601f10620024b757610100808354040283529160200191620024e3565b820191906000526020600020905b815481529060010190602001808311620024c557829003601f168201915b5050505050908060040160009054906101000a900460ff1690806005018054600181600116156101000203166002900480601f016020809104026020016040519081016040528092919081815260200182805460018160011615610100020316600290048015620025985780601f106200256c5761010080835404028352916020019162002598565b820191906000526020600020905b8154815290600101906020018083116200257a57829003601f168201915b5050505050905086565b60026020528060005260406000206000915090508054600181600116156101000203166002900480601f0160208091040260200160405190810160405280929190818152602001828054600181600116156101000203166002900480156200264e5780601f1062002622576101008083540402835291602001916200264e565b820191906000526020600020905b8154815290600101906020018083116200263057829003601f168201915b505050505081565b60065481565b60066000815480929190600101919050555060c0604051908101604052808773ffffffffffffffffffffffffffffffffffffffff1681526020018673ffffffffffffffffffffffffffffffffffffffff16815260200185815260200184815260200183151581526020018281525060046000600654815260200190815260200160002060008201518160000160006101000a81548173ffffffffffffffffffffffffffffffffffffffff021916908373ffffffffffffffffffffffffffffffffffffffff16021790555060208201518160010160006101000a81548173ffffffffffffffffffffffffffffffffffffffff021916908373ffffffffffffffffffffffffffffffffffffffff16021790555060408201518160020190805190602001906200278b92919062002ddf565b506060820151816003019080519060200190620027aa92919062002ddf565b5060808201518160040160006101000a81548160ff02191690831515021790555060a0820151816005019080519060200190620027e992919062002ddf565b509050507f5717b7661433cef5bffca9f9059d0e57d590283d1d1c09d789ad409232d9fa128686604051808373ffffffffffffffffffffffffffffffffffffffff1673ffffffffffffffffffffffffffffffffffffffff1681526020018273ffffffffffffffffffffffffffffffffffffffff1673ffffffffffffffffffffffffffffffffffffffff1681526020019250505060405180910390a1505050505050565b6000816040516020018082805190602001908083835b602083101515620028c95780518252602082019150602081019050602083039250620028a2565b6001836020036101000a03801982511681845116808217855250505050505090500191505060405160208183030381529060405280519060200120836040516020018082805190602001908083835b6020831015156200293f578051825260208201915060208101905060208303925062002918565b6001836020036101000a0380198251168184511680821785525050505050509050019150506040516020818303038152906040528051906020012014905092915050565b806004600084815260200190815260200160002060010160006101000a81548173ffffffffffffffffffffffffffffffffffffffff021916908373ffffffffffffffffffffffffffffffffffffffff160217905550602060405190810160405280600081525060046000848152602001908152602001600020600501908051906020019062002a1492919062002cea565b507fa1724cdc6b9d23bb4271299763c66c4b65957ab2a93669516e4556835d3481996004600084815260200190815260200160002060000160009054906101000a900473ffffffffffffffffffffffffffffffffffffffff16826004600086815260200190815260200160002060010160009054906101000a900473ffffffffffffffffffffffffffffffffffffffff16604051808473ffffffffffffffffffffffffffffffffffffffff1673ffffffffffffffffffffffffffffffffffffffff1681526020018373ffffffffffffffffffffffffffffffffffffffff1673ffffffffffffffffffffffffffffffffffffffff1681526020018273ffffffffffffffffffffffffffffffffffffffff1673ffffffffffffffffffffffffffffffffffffffff168152602001935050505060405180910390a15050565b8060046000848152602001908152602001600020600201908051906020019062002b7c92919062002cea565b507f28fd100052557c591d4bcfc0fb7067949b6a45994ada5bf105b64abda3ae170382826040518083815260200180602001828103825283818151815260200191508051906020019080838360005b8381101562002be857808201518184015260208101905062002bcb565b50505050905090810190601f16801562002c165780820380516001836020036101000a031916815260200191505b50935050505060405180910390a15050565b60055481565b806004600084815260200190815260200160002060040160006101000a81548160ff0219169083151502179055507f040a5605a2101baaee10653d328d8033107e42933f5da2ebc7c3d86c320ace2c828260405180838152602001821515151581526020019250505060405180910390a15050565b6000600360003373ffffffffffffffffffffffffffffffffffffffff1673ffffffffffffffffffffffffffffffffffffffff16815260200190815260200160002054905090565b828054600181600116156101000203166002900490600052602060002090601f016020900481019282601f1062002d2d57805160ff191683800117855562002d5e565b8280016001018555821562002d5e579182015b8281111562002d5d57825182559160200191906001019062002d40565b5b50905062002d6d919062002e66565b5090565b50805460018160011615610100020316600290046000825580601f1062002d99575062002dba565b601f01602090049060005260206000209081019062002db9919062002e66565b5b50565b60405161184c8062002e8f83390190565b604051610c1780620046db83390190565b828054600181600116156101000203166002900490600052602060002090601f016020900481019282601f1062002e2257805160ff191683800117855562002e53565b8280016001018555821562002e53579182015b8281111562002e5257825182559160200191906001019062002e35565b5b50905062002e62919062002e66565b5090565b62002e8b91905b8082111562002e8757600081600090555060010162002e6d565b5090565b9056fe60806040523480156200001157600080fd5b506040516200184c3803806200184c833981018060405260e08110156200003757600080fd5b810190808051906020019092919080516401000000008111156200005a57600080fd5b828101905060208101848111156200007157600080fd5b81518560018202830111640100000000821117156200008f57600080fd5b50509291906020018051640100000000811115620000ac57600080fd5b82810190506020810184811115620000c357600080fd5b8151856001820283011164010000000082111715620000e157600080fd5b50509291906020018051640100000000811115620000fe57600080fd5b828101905060208101848111156200011557600080fd5b81518560018202830111640100000000821117156200013357600080fd5b505092919060200180516401000000008111156200015057600080fd5b828101905060208101848111156200016757600080fd5b81518560018202830111640100000000821117156200018557600080fd5b50509291906020018051640100000000811115620001a257600080fd5b82810190506020810184811115620001b957600080fd5b8151856001820283011164010000000082111715620001d757600080fd5b50509291906020018051640100000000811115620001f457600080fd5b828101905060208101848111156200020b57600080fd5b81518560018202830111640100000000821117156200022957600080fd5b505092919050505086868686868686866000806101000a81548173ffffffffffffffffffffffffffffffffffffffff021916908373ffffffffffffffffffffffffffffffffffffffff16021790555085600190805190602001906200029092919062000477565b508460029080519060200190620002a992919062000477565b508360039080519060200190620002c292919062000477565b508260049080519060200190620002db92919062000477565b508160059080519060200190620002f492919062000477565b5080600690805190602001906200030d92919062000477565b50505050505050506200031f620004fe565b8080602001828103825260008152602001602001915050604051809103906000f08015801562000353573d6000803e3d6000fd5b50600760006101000a81548173ffffffffffffffffffffffffffffffffffffffff021916908373ffffffffffffffffffffffffffffffffffffffff160217905550866000806101000a81548173ffffffffffffffffffffffffffffffffffffffff021916908373ffffffffffffffffffffffffffffffffffffffff1602179055508560019080519060200190620003ec92919062000477565b5084600290805190602001906200040592919062000477565b5083600390805190602001906200041e92919062000477565b5082600490805190602001906200043792919062000477565b5081600590805190602001906200045092919062000477565b5080600690805190602001906200046992919062000477565b505050505050505062000537565b828054600181600116156101000203166002900490600052602060002090601f016020900481019282601f10620004ba57805160ff1916838001178555620004eb565b82800160010185558215620004eb579182015b82811115620004ea578251825591602001919060010190620004cd565b5b509050620004fa91906200050f565b5090565b604051610a398062000e1383390190565b6200053491905b808211156200053057600081600090555060010162000516565b5090565b90565b6108cc80620005476000396000f3fe60806040526004361061008e576000357c0100000000000000000000000000000000000000000000000000000000900463ffffffff16806306fdde0314610093578063224b610b1461012357806326b85ee1146101b35780634d4405a91461020a57806363ffab311461029a57806368c411571461032a578063e6fcc84b14610381578063f514ce3614610411575b600080fd5b34801561009f57600080fd5b506100a86104a1565b6040518080602001828103825283818151815260200191508051906020019080838360005b838110156100e85780820151818401526020810190506100cd565b50505050905090810190601f1680156101155780820380516001836020036101000a031916815260200191505b509250505060405180910390f35b34801561012f57600080fd5b5061013861053f565b6040518080602001828103825283818151815260200191508051906020019080838360005b8381101561017857808201518184015260208101905061015d565b50505050905090810190601f1680156101a55780820380516001836020036101000a031916815260200191505b509250505060405180910390f35b3480156101bf57600080fd5b506101c86105dd565b604051808273ffffffffffffffffffffffffffffffffffffffff1673ffffffffffffffffffffffffffffffffffffffff16815260200191505060405180910390f35b34801561021657600080fd5b5061021f610602565b6040518080602001828103825283818151815260200191508051906020019080838360005b8381101561025f578082015181840152602081019050610244565b50505050905090810190601f16801561028c5780820380516001836020036101000a031916815260200191505b509250505060405180910390f35b3480156102a657600080fd5b506102af6106a0565b6040518080602001828103825283818151815260200191508051906020019080838360005b838110156102ef5780820151818401526020810190506102d4565b50505050905090810190601f16801561031c5780820380516001836020036101000a031916815260200191505b509250505060405180910390f35b34801561033657600080fd5b5061033f61073e565b604051808273ffffffffffffffffffffffffffffffffffffffff1673ffffffffffffffffffffffffffffffffffffffff16815260200191505060405180910390f35b34801561038d57600080fd5b50610396610764565b6040518080602001828103825283818151815260200191508051906020019080838360005b838110156103d65780820151818401526020810190506103bb565b50505050905090810190601f1680156104035780820380516001836020036101000a031916815260200191505b509250505060405180910390f35b34801561041d57600080fd5b50610426610802565b6040518080602001828103825283818151815260200191508051906020019080838360005b8381101561046657808201518184015260208101905061044b565b50505050905090810190601f1680156104935780820380516001836020036101000a031916815260200191505b509250505060405180910390f35b60018054600181600116156101000203166002900480601f0160208091040260200160405190810160405280929190818152602001828054600181600116156101000203166002900480156105375780601f1061050c57610100808354040283529160200191610537565b820191906000526020600020905b81548152906001019060200180831161051a57829003601f168201915b505050505081565b60048054600181600116156101000203166002900480601f0160208091040260200160405190810160405280929190818152602001828054600181600116156101000203166002900480156105d55780601f106105aa576101008083540402835291602001916105d5565b820191906000526020600020905b8154815290600101906020018083116105b857829003601f168201915b505050505081565b6000809054906101000a900473ffffffffffffffffffffffffffffffffffffffff1681565b60058054600181600116156101000203166002900480601f0160208091040260200160405190810160405280929190818152602001828054600181600116156101000203166002900480156106985780601f1061066d57610100808354040283529160200191610698565b820191906000526020600020905b81548152906001019060200180831161067b57829003601f168201915b505050505081565b60068054600181600116156101000203166002900480601f0160208091040260200160405190810160405280929190818152602001828054600181600116156101000203166002900480156107365780601f1061070b57610100808354040283529160200191610736565b820191906000526020600020905b81548152906001019060200180831161071957829003601f168201915b505050505081565b600760009054906101000a900473ffffffffffffffffffffffffffffffffffffffff1681565b60038054600181600116156101000203166002900480601f0160208091040260200160405190810160405280929190818152602001828054600181600116156101000203166002900480156107fa5780601f106107cf576101008083540402835291602001916107fa565b820191906000526020600020905b8154815290600101906020018083116107dd57829003601f168201915b505050505081565b60028054600181600116156101000203166002900480601f0160208091040260200160405190810160405280929190818152602001828054600181600116156101000203166002900480156108985780601f1061086d57610100808354040283529160200191610898565b820191906000526020600020905b81548152906001019060200180831161087b57829003601f168201915b50505050508156fea165627a7a72305820536b9461806a54ab169a7de74d50f1b257ea35e3b7c42135698f705c33a378110029608060405234801561001057600080fd5b50604051610a39380380610a398339810180604052602081101561003357600080fd5b81019080805164010000000081111561004b57600080fd5b8281019050602081018481111561006157600080fd5b815185600182028301116401000000008211171561007e57600080fd5b5050929190505050806000908051906020019061009c9291906100a3565b5050610148565b828054600181600116156101000203166002900490600052602060002090601f016020900481019282601f106100e457805160ff1916838001178555610112565b82800160010185558215610112579182015b828111156101115782518255916020019190600101906100f6565b5b50905061011f9190610123565b5090565b61014591905b80821115610141576000816000905550600101610129565b5090565b90565b6108e2806101576000396000f3fe608060405260043610610057576000357c0100000000000000000000000000000000000000000000000000000000900463ffffffff168063215fd7e71461005c578063bed34bba146101bb578063e0a4c8d614610332575b600080fd5b34801561006857600080fd5b506101b96004803603604081101561007f57600080fd5b810190808035906020019064010000000081111561009c57600080fd5b8201836020820111156100ae57600080fd5b803590602001918460018302840111640100000000831117156100d057600080fd5b91908080601f016020809104026020016040519081016040528093929190818152602001838380828437600081840152601f19601f8201169050808301925050505050505091929192908035906020019064010000000081111561013357600080fd5b82018360208201111561014557600080fd5b8035906020019184600183028401116401000000008311171561016757600080fd5b91908080601f016020809104026020016040519081016040528093929190818152602001838380828437600081840152601f19601f8201169050808301925050505050505091929192905050506103c2565b005b3480156101c757600080fd5b50610318600480360360408110156101de57600080fd5b81019080803590602001906401000000008111156101fb57600080fd5b82018360208201111561020d57600080fd5b8035906020019184600183028401116401000000008311171561022f57600080fd5b91908080601f016020809104026020016040519081016040528093929190818152602001838380828437600081840152601f19601f8201169050808301925050505050505091929192908035906020019064010000000081111561029257600080fd5b8201836020820111156102a457600080fd5b803590602001918460018302840111640100000000831117156102c657600080fd5b91908080601f016020809104026020016040519081016040528093929190818152602001838380828437600081840152601f19601f820116905080830192505050505050509192919290505050610680565b604051808215151515815260200191505060405180910390f35b34801561033e57600080fd5b50610347610773565b6040518080602001828103825283818151815260200191508051906020019080838360005b8381101561038757808201518184015260208101905061036c565b50505050905090810190601f1680156103b45780820380516001836020036101000a031916815260200191505b509250505060405180910390f35b610401816040805190810160405280600981526020017f696e666f4576656e740000000000000000000000000000000000000000000000815250610680565b156104a3577f571cd22fdb7ee756a91b2a34cbc2b29ea884e4f6d393ae0e33c2e04fde4a4a3f826040518080602001828103825283818151815260200191508051906020019080838360005b8381101561046857808201518184015260208101905061044d565b50505050905090810190601f1680156104955780820380516001836020036101000a031916815260200191505b509250505060405180910390a15b6104e2816040805190810160405280600f81526020017f68656d6f676c6f62696e4576656e740000000000000000000000000000000000815250610680565b15610584577f1da8c9d647b4530e17c9b1e16bbfb11e6e3d796d13ffcc847de1672292eb7de9826040518080602001828103825283818151815260200191508051906020019080838360005b8381101561054957808201518184015260208101905061052e565b50505050905090810190601f1680156105765780820380516001836020036101000a031916815260200191505b509250505060405180910390a15b6105c3816040805190810160405280601081526020017f6170706f696e746d656e744576656e7400000000000000000000000000000000815250610680565b15610665577f1b2f48f8f59d919b6c9da8548b4541e99d1887b87e05b9e32e2d21de567ba0c6826040518080602001828103825283818151815260200191508051906020019080838360005b8381101561062a57808201518184015260208101905061060f565b50505050905090810190601f1680156106575780820380516001836020036101000a031916815260200191505b509250505060405180910390a15b816000908051906020019061067b929190610811565b505050565b6000816040516020018082805190602001908083835b6020831015156106bb5780518252602082019150602081019050602083039250610696565b6001836020036101000a03801982511681845116808217855250505050505090500191505060405160208183030381529060405280519060200120836040516020018082805190602001908083835b60208310151561072f578051825260208201915060208101905060208303925061070a565b6001836020036101000a0380198251168184511680821785525050505050509050019150506040516020818303038152906040528051906020012014905092915050565b60008054600181600116156101000203166002900480601f0160208091040260200160405190810160405280929190818152602001828054600181600116156101000203166002900480156108095780601f106107de57610100808354040283529160200191610809565b820191906000526020600020905b8154815290600101906020018083116107ec57829003601f168201915b505050505081565b828054600181600116156101000203166002900490600052602060002090601f016020900481019282601f1061085257805160ff1916838001178555610880565b82800160010185558215610880579182015b8281111561087f578251825591602001919060010190610864565b5b50905061088d9190610891565b5090565b6108b391905b808211156108af576000816000905550600101610897565b5090565b9056fea165627a7a72305820128087e41d18e2996e359b46458534bd4aa0de49e3c55aaff79b0e4049099d86002960806040523480156200001157600080fd5b5060405162000c1738038062000c17833981018060405260e08110156200003757600080fd5b810190808051906020019092919080516401000000008111156200005a57600080fd5b828101905060208101848111156200007157600080fd5b81518560018202830111640100000000821117156200008f57600080fd5b50509291906020018051640100000000811115620000ac57600080fd5b82810190506020810184811115620000c357600080fd5b8151856001820283011164010000000082111715620000e157600080fd5b50509291906020018051640100000000811115620000fe57600080fd5b828101905060208101848111156200011557600080fd5b81518560018202830111640100000000821117156200013357600080fd5b505092919060200180516401000000008111156200015057600080fd5b828101905060208101848111156200016757600080fd5b81518560018202830111640100000000821117156200018557600080fd5b50509291906020018051640100000000811115620001a257600080fd5b82810190506020810184811115620001b957600080fd5b8151856001820283011164010000000082111715620001d757600080fd5b50509291906020018051640100000000811115620001f457600080fd5b828101905060208101848111156200020b57600080fd5b81518560018202830111640100000000821117156200022957600080fd5b5050929190505050866000806101000a81548173ffffffffffffffffffffffffffffffffffffffff021916908373ffffffffffffffffffffffffffffffffffffffff16021790555085600190805190602001906200028992919062000314565b508460029080519060200190620002a292919062000314565b508360039080519060200190620002bb92919062000314565b508260049080519060200190620002d492919062000314565b508160059080519060200190620002ed92919062000314565b5080600690805190602001906200030692919062000314565b5050505050505050620003c3565b828054600181600116156101000203166002900490600052602060002090601f016020900481019282601f106200035757805160ff191683800117855562000388565b8280016001018555821562000388579182015b82811115620003875782518255916020019190600101906200036a565b5b5090506200039791906200039b565b5090565b620003c091905b80821115620003bc576000816000905550600101620003a2565b5090565b90565b61084480620003d36000396000f3fe608060405260043610610083576000357c0100000000000000000000000000000000000000000000000000000000900463ffffffff16806306fdde0314610088578063224b610b1461011857806326b85ee1146101a85780634d4405a9146101ff57806363ffab311461028f578063e6fcc84b1461031f578063f514ce36146103af575b600080fd5b34801561009457600080fd5b5061009d61043f565b6040518080602001828103825283818151815260200191508051906020019080838360005b838110156100dd5780820151818401526020810190506100c2565b50505050905090810190601f16801561010a5780820380516001836020036101000a031916815260200191505b509250505060405180910390f35b34801561012457600080fd5b5061012d6104dd565b6040518080602001828103825283818151815260200191508051906020019080838360005b8381101561016d578082015181840152602081019050610152565b50505050905090810190601f16801561019a5780820380516001836020036101000a031916815260200191505b509250505060405180910390f35b3480156101b457600080fd5b506101bd61057b565b604051808273ffffffffffffffffffffffffffffffffffffffff1673ffffffffffffffffffffffffffffffffffffffff16815260200191505060405180910390f35b34801561020b57600080fd5b506102146105a0565b6040518080602001828103825283818151815260200191508051906020019080838360005b83811015610254578082015181840152602081019050610239565b50505050905090810190601f1680156102815780820380516001836020036101000a031916815260200191505b509250505060405180910390f35b34801561029b57600080fd5b506102a461063e565b6040518080602001828103825283818151815260200191508051906020019080838360005b838110156102e45780820151818401526020810190506102c9565b50505050905090810190601f1680156103115780820380516001836020036101000a031916815260200191505b509250505060405180910390f35b34801561032b57600080fd5b506103346106dc565b6040518080602001828103825283818151815260200191508051906020019080838360005b83811015610374578082015181840152602081019050610359565b50505050905090810190601f1680156103a15780820380516001836020036101000a031916815260200191505b509250505060405180910390f35b3480156103bb57600080fd5b506103c461077a565b6040518080602001828103825283818151815260200191508051906020019080838360005b838110156104045780820151818401526020810190506103e9565b50505050905090810190601f1680156104315780820380516001836020036101000a031916815260200191505b509250505060405180910390f35b60018054600181600116156101000203166002900480601f0160208091040260200160405190810160405280929190818152602001828054600181600116156101000203166002900480156104d55780601f106104aa576101008083540402835291602001916104d5565b820191906000526020600020905b8154815290600101906020018083116104b857829003601f168201915b505050505081565b60048054600181600116156101000203166002900480601f0160208091040260200160405190810160405280929190818152602001828054600181600116156101000203166002900480156105735780601f1061054857610100808354040283529160200191610573565b820191906000526020600020905b81548152906001019060200180831161055657829003601f168201915b505050505081565b6000809054906101000a900473ffffffffffffffffffffffffffffffffffffffff1681565b60058054600181600116156101000203166002900480601f0160208091040260200160405190810160405280929190818152602001828054600181600116156101000203166002900480156106365780601f1061060b57610100808354040283529160200191610636565b820191906000526020600020905b81548152906001019060200180831161061957829003601f168201915b505050505081565b60068054600181600116156101000203166002900480601f0160208091040260200160405190810160405280929190818152602001828054600181600116156101000203166002900480156106d45780601f106106a9576101008083540402835291602001916106d4565b820191906000526020600020905b8154815290600101906020018083116106b757829003601f168201915b505050505081565b60038054600181600116156101000203166002900480601f0160208091040260200160405190810160405280929190818152602001828054600181600116156101000203166002900480156107725780601f1061074757610100808354040283529160200191610772565b820191906000526020600020905b81548152906001019060200180831161075557829003601f168201915b505050505081565b60028054600181600116156101000203166002900480601f0160208091040260200160405190810160405280929190818152602001828054600181600116156101000203166002900480156108105780601f106107e557610100808354040283529160200191610810565b820191906000526020600020905b8154815290600101906020018083116107f357829003601f168201915b50505050508156fea165627a7a72305820ad4c8ffdb197872f50665a4be6ce01b0583f966013e12e4302d402d0527e03b60029a165627a7a72305820dcd79f8e6d86bff3866a60952d84671f17156da3bd365514f5bb99d91c0d80000029",
  "source": "pragma solidity ^0.5.0;\r\n\r\nimport './Agent.sol';\r\nimport './Patient.sol';\r\n\r\ncontract Platform {\r\n\r\n\r\n\r\n    struct Relationship {\r\n        address patient;\r\n        address other;\r\n        string access;\r\n        string rType;\r\n        bool active;\r\n        string key;\r\n    }\r\n\r\n    mapping (uint => Agent)  public agents;\r\n    mapping (string => address) agentAddresses;\r\n    mapping (address => string) public agentPrivateKeys;\r\n    mapping (address => uint) public registeredAgents;\r\n    mapping (uint => Relationship) public relationships;\r\n\r\n    uint public agentsCount;\r\n    uint public relationshipsCount;\r\n\r\n    constructor () public {\r\n    }\r\n\r\n    event registerEvent (\r\n        address agentAddress\r\n    );\r\n\r\n    event accessEvent (\r\n        uint i,\r\n        string access\r\n    );\r\n\r\n    event relationshipEvent (\r\n        address ow,\r\n        address ot\r\n    );\r\n\r\n    event activeEvent (\r\n        uint i,\r\n        bool active\r\n    );\r\n\r\n    event otherEvent (\r\n        address ow,\r\n        address ot1,\r\n        address ot2\r\n    );\r\n\r\n    event bothEvent (\r\n        address ow1,\r\n        address ot1,\r\n        address ow2,\r\n        address ot2\r\n    );\r\n\r\n    event oneEvent (\r\n        address ow,\r\n        address ot\r\n    );\r\n\r\n    event keyEvent (\r\n        uint ow,\r\n        string key\r\n    );\r\n\r\n\r\n    function compareStrings (string memory a, string memory b) public view \r\n       returns (bool) {\r\n    return (keccak256(abi.encodePacked((a))) == keccak256(abi.encodePacked((b))) );\r\n\r\n    }\r\n\r\n    function registerAgent (string memory name,string memory uid, string memory did, string memory password, string memory tp, string memory phrase, string memory pk, string memory pbKey) public {\r\n        agentsCount++;\r\n        if(compareStrings(tp,\"pt\")){\r\n        agents[agentsCount] = new Patient({ma:msg.sender,nm:name, ui:uid,di:did,pass:password, tp:tp, pbKey:pbKey});\r\n        }else{\r\n        agents[agentsCount] = new Agent({ma:msg.sender,nm:name, ui:uid,di:did, pass:password, tp:tp, pbKey:pbKey });}\r\n        registeredAgents[msg.sender] = agentsCount;\r\n        agentAddresses[phrase] = msg.sender;\r\n        agentPrivateKeys[msg.sender] = pk;   \r\n        emit registerEvent(msg.sender);\r\n    }\r\n\r\n    function getAgentIndex () public view returns (uint){\r\n        return registeredAgents[msg.sender];\r\n    }\r\n\r\n    function getAgentByPhrase (string memory phrase) public view returns (address){\r\n        return agentAddresses[phrase];\r\n    }\r\n\r\n    function addRelationship (address ow, address ot,string memory acc,string memory tp,bool act, string memory key) public {\r\n        relationshipsCount++;\r\n        relationships[relationshipsCount] = Relationship (ow,ot,acc,tp,act,key);\r\n        emit relationshipEvent(ow,ot);\r\n    }\r\n\r\n    function deleteRelationship (uint i) public {\r\n       delete relationships[i];\r\n    }\r\n\r\n    function setAccess (uint i,string memory ac) public {\r\n        relationships[i].access = ac;\r\n        emit accessEvent(i,ac);\r\n    }\r\n\r\n    function setActive (uint i,bool ac) public {\r\n        relationships[i].active = ac;\r\n        emit activeEvent(i,ac);\r\n    }\r\n\r\n    function setOther (uint i,address ad) public {\r\n        relationships[i].other = ad; \r\n        relationships[i].key = \"\";\r\n        emit otherEvent(relationships[i].patient,ad,relationships[i].other);\r\n    }\r\n\r\n    function setBoth(uint i,uint i2) public{\r\n        relationships[i].access = \"fal\";\r\n        relationships[i].rType = \"nm\";\r\n        relationships[i].active = true;\r\n        relationships[i2].access = \"fa\";\r\n        relationships[i2].rType = \"fd\";\r\n        relationships[i2].active = true;\r\n        emit bothEvent(relationships[i].patient,relationships[i].other,relationships[i2].patient,relationships[i2].other);\r\n    }\r\n\r\n    function setOne(uint i) public{\r\n        relationships[i].access = \"fa\";\r\n        relationships[i].rType = \"fd\";\r\n        relationships[i].active = true;\r\n        emit oneEvent(relationships[i].patient,relationships[i].other);\r\n    }\r\n\r\n    function setKey(uint i, string memory key) public{\r\n        relationships[i].key = key;\r\n        emit keyEvent(i, key);\r\n    }\r\n\r\n}\r\n",
  "sourcePath": "C:/Users/Giordy/Desktop/vainas del escritorio/Med.bc/Med.bc/contracts/Platform.sol",
  "compiler": {
    "name": "solc",
    "version": "0.5.0+commit.1d4f565a.Emscripten.clang"
  },
  "schemaVersion": "3.0.5",
  "updatedAt": "2020-04-04T22:14:44.461Z",
  "devdoc": {
    "methods": {}
  },
  "userdoc": {
    "methods": {}
  }
}